:020000040800F2
:100000002807002089010008271500080D140008A2
:10001000251500082F0300086919000800000000DA
:100020000000000000000000000000002B15000888
:100030003103000800000000291500082D150008F4
:10004000A3010008A3010008A3010008A301000800
:10005000A3010008A3010008A3010008A3010008F0
:10006000A3010008A3010008A3010008A3010008E0
:10007000A3010008A3010008A3010008A3010008D0
:10008000A3010008A3010008A3010008A3010008C0
:10009000A3010008A3010008A3010008A3010008B0
:1000A000A3010008A3010008A3010008A3010008A0
:1000B000A301000889150008A3010008A301000896
:1000C000A3010008A3010008A3010008A301000880
:1000D000A301000849190008A3010008A3010008B2
:1000E000A3010008A3010008A301000800F002F822
:1000F00000F03AF80AA090E8000C82448344AAF188
:100100000107DA4501D100F02FF8AFF2090EBAE885
:100110000F0013F0010F18BFFB1A43F0010318473B
:1001200088390000A8390000103A24BF78C878C187
:10013000FAD8520724BF30C830C144BF04680C60ED
:10014000704700000023002400250026103A28BF35
:1001500078C1FBD8520728BF30C148BF0B60704739
:100160001FB51FBD10B510BD00F0ACF81146FFF76C
:10017000F7FF01F051FD00F0CAF803B4FFF7F2FFFA
:1001800003BC00F0CDF8000009488047094800474B
:10019000FEE7FEE7FEE7FEE7FEE7FEE7FEE7FEE737
:1001A000FEE7FEE704480549054A064B7047000094
:1001B00087150008ED00000828010020280700200E
:1001C00028030020280300204FF0000200B513464A
:1001D00094469646203922BFA0E80C50A0E80C5067
:1001E000B1F12001BFF4F7AF090728BFA0E80C5018
:1001F00048BF0CC05DF804EB890028BF40F8042B11
:1002000008BF704748BF20F8022B11F0804F18BF7D
:1002100000F8012B704700004FF0013C50F8042B10
:1002200051F8043B9A4221D1A2EB0C03934313EA09
:10023000CC1317D150F8042B51F8043B9A4215D136
:10024000A2EB0C03934313EACC130BD150F8042B0D
:1002500051F8043B9A4209D1A2EB0C03934313EAF1
:10026000CC13DBD04FF00000704700BFD01A01BAAA
:10027000B1FA81F101F0180122FA01F0CB40C1F18D
:100280002001DBB2C0B2C01A2CFA01F3D11A91439B
:1002900011EAC311E6D1704770477047704710B537
:1002A00000F008F8006810BD10B5044600F002F830
:1002B000046010BD00487047C4000020004870472B
:1002C000C40000207546FFF7F9FFAE4605006946F9
:1002D000534620F00700854618B020B5FFF762FFAF
:1002E000BDE820404FF000064FF000074FF0000837
:1002F0004FF0000B21F00701AC46ACE8C009ACE8B8
:10030000C009ACE8C009ACE8C0098D46704710B51B
:100310000446AFF300802046BDE81040FFF72DBF34
:1003200001491820ABBEFEE7260002007047FEE739
:10033000704710B590F821100022022905D0042141
:10034000816380F82020012010BD01680B6823F034
:100350000E030B6001680B6823F001030B6090F83B
:100360004030C46B012101FA03F3636080F821106F
:1003700080F82020104610BD10B590F82110002400
:10038000022903D00421816301243DE001680A6849
:1003900022F00E020A6001680A6822F001020A6077
:1003A0001A4A0168914201D1012121E0174A143211
:1003B000914201D110211BE0144A2832914201D10F
:1003C000891515E0114A3C32914201D189140FE0A0
:1003D0000E4A5032914202D14FF4803108E00B4A6C
:1003E0006432914202D14FF4801101E04FF08071EC
:1003F000064A083A5160012180F82110002180F856
:100400002010416B01B18847204610BD0800024012
:1004100070B5044600F008F90546601C02D0044897
:100420000078044400F000F9401BA042FAD370BDEC
:10043000140000202DE9F84FDFF8B891002409F1ED
:10044000040A0AF1040B23460F270BF1040EC9E03E
:100450000125A5402A40AA427DD1674ED1F804C0AB
:10046000ACEB0608B44532D014DCBCF1030F3AD033
:1004700009DCBCF1000F2AD0BCF1010F1CD0BCF18B
:10048000020F31D11DE0BCF1110F17D0BCF1120FDA
:100490002AD119E0B8F5881F19D006DCB8F5803FDD
:1004A00015D0B8F5801F1FD111E0B8F5001F0ED090
:1004B000B8F5041F18D10AE0CB6815E0CB681B1D06
:1004C00012E0CB6808330FE0CB680C330CE08B688C
:1004D0002BB1012B4FF0080303D0456104E0042346
:1004E00002E0056100E00023FF2A01D8064601E092
:1004F00000F104064FEA840501D9A5F12005D6F8DC
:10050000008007FA05FC28EA0C0803FA05F548EA1A
:100510000508C6F800804D68ED0062D5374DAE691C
:1005200046F00106AE61AD6924F0030605F0010551
:100530000095334D06EB050CDCF80850A607360F86
:1005400007FA06F825EA0805DFF8B880404503D128
:100550004FF0000817E044E0DFF8AC80404502D1DE
:100560004FF001080FE0DFF8A480404502D14FF0C2
:10057000020808E0DFF89880404502D14FF00308F8
:1005800001E04FF0040808FA06F848EA0508CCF83C
:1005900008804D68D9F80060ED034D4601D516433B
:1005A00000E096432E604D68DAF80060AD035546D2
:1005B00001D5164300E096432E604D68DBF80060DD
:1005C000ED025D4601D5164300E096432E604D686E
:1005D000DEF80060AD02754601D5164300E0964393
:1005E0002E60641C0D682A46E5407FF431AFBDE8FB
:1005F000F88F0000000401400000111000100240BC
:100600000000014000080140000C014000100140C2
:10061000001401408068084000D0012070470AB1F2
:10062000016170470904FBE70148806870470000DA
:1006300014000020024881680278114481607047EC
:1006400014000020074810B5016841F01001016056
:10065000032000F075F80F2000F006F800F024F8F1
:10066000002010BD0020024070B50D4D04464FF42F
:100670007A712878B1FBF0F00A490968B1FBF0F013
:1006800000F0ECFA48B9102C07D200222146501E87
:1006900000F036F800206C6070BD012070BD0000D5
:1006A00014000020200000200C4808B5816941F0AA
:1006B00001018161816901F001010091C16941F08D
:1006C0008051C161C06900F08050009004484168C9
:1006D00021F0E06141F00071416008BD001002406E
:1006E00000000140002809DB00F01F0201219140B9
:1006F0004009800000F1E020C0F8001170470000C0
:10070000F0B40E4B1B680C46C3F30223C3F107057C
:10071000042D00D90425191D072901D2002300E06A
:10072000DB1E012606FA05F1491E214099409E4034
:10073000761E16403143F0BC01F02BB90CED00E001
:10074000064900F0070208684FF6FF03184040EA28
:100750000220034A10430860704700000CED00E0DF
:100760000000FA052DE9F0470F46050061D0434E21
:10077000306800F00700B84209D2306820F0070066
:1007800038433060306800F00700B84251D1286823
:100790003B4C810712D5400703D5606840F4E06008
:1007A00060602878000703D5606840F4605060609E
:1007B0006068A96820F0F000084360602878C007EE
:1007C00028D06868012810D02168022810D0890735
:1007D00000292EDA616821F0030101436160FFF70F
:1007E00023FF804641F288390DE021688903EFE755
:1007F0008901EDE7FFF718FFA0EB0801494502D991
:100800000320BDE8F0876068696800F00C00B0EB79
:10081000810FEFD1306800F00700B8420BD9306883
:1008200020F0070038433060306800F00700B8421D
:1008300001D00120E5E72878400705D56068E96820
:1008400020F4E060084360602878000706D56068FF
:10085000296920F4605040EAC100606000F038F877
:100860006168084AC1F30311515CC8400649086039
:1008700006480068FFF7F8FE0020C2E700200240AB
:1008800000100240FE39000820000020180000205F
:100890000448054900684968044AC1F30221515CD3
:1008A000C840704720000020001002400E3A0008A7
:1008B0000448054900684968044AC1F3C221515CF3
:1008C000C840704720000020001002400E3A000887
:1008D00012A185B00FC98DE80F0014A0144A00685A
:1008E00004905168134801F00C03042B10D0082B1E
:1008F0000ED1C1F38343C9031DF803000AD5516823
:1009000004AAC1F34041515C0A4A5043B0FBF1F0E4
:1009100005B0704708494843FAE7000002030405A0
:10092000060708090A0B0C0D0E0F1010010200003B
:100930000010024000127A0000093D002DE9F84F36
:10094000040070D02078C04DC00749D06868C0F35B
:100950008100012807D06868C0F38100022809D10E
:100960006868C00306D52868800339D56068002808
:10097000E7D035E06068B0F5803F0BD010B1B0F53E
:10098000A02F11D0286820F480302860286820F437
:10099000802002E0286840F480302860606890B1D0
:1009A000FFF742FE06460AE0286840F480202860EF
:1009B000F0E700BFFFF738FE801B642873D8286873
:1009C0008003F7D50CE0FFF72FFE064605E000BFD9
:1009D000FFF72AFE801B6428F0D828688003F7D42C
:1009E00020789A4E80074FF001094FF0000839D562
:1009F000686810F00C0F07D06868C0F38100022807
:100A000009D16868C00306D42868800714D5206916
:100A1000012808D110E02069B0B1C6F80090FFF7B6
:100A200003FE074605E00AE1FFF7FEFDC01B0228B2
:100A3000C4D828688007F7D52868616920F0F800D5
:100A400040EAC10028600DE0C6F80080FFF7ECFD29
:100A5000074604E0FFF7E8FDC01B022823D82868FA
:100A60008007F7D4207800072CD57948A169D9B13F
:100A7000C0F80090FFF7D8FD074604E0FFF7D4FD6B
:100A8000C01B02280FD8686A8007F7D571484FF459
:100A9000FA510068B0FBF1F0009000BF0098411ED1
:100AA0000091FAD20EE080E0C0F80080FFF7BCFDB4
:100AB000074604E0FFF7B8FDC01B022875D8686A36
:100AC0008007F7D42078400760D5E8690027C00088
:100AD00008D4E86940F08050E861E869012700F037
:100AE000805000905C480168C90513D401688346B2
:100AF00041F480710160FFF797FD824606E000BF78
:100B0000FFF792FDA0EB0A0064284ED8DBF8000046
:100B1000C005F5D5E06801280AD008B1052813D032
:100B2000286A20F001002862286A20F0040002E010
:100B3000286A40F001002862E06841F2883B98B1E1
:100B4000FFF772FD82460BE0286A40F0040028623D
:100B5000EEE700BFFFF768FDA0EB0A0159455AD840
:100B6000286A8007F6D50CE0FFF75EFD824605E0B7
:100B7000FFF75AFDA0EB0A0159454CD8286A8007B7
:100B8000F6D41FB1E86920F08050E861E06988B3CD
:100B90006968C1F38101022944D00228C6F8608047
:100BA00004D0FFF741FD044638E034E0FFF73CFD98
:100BB000074604E0FFF738FDC01B02282BD8286841
:100BC0008001F7D4206AB0F5803F05D16868A1683C
:100BD00020F4003008436860D4E9080108436968DC
:100BE00021F4741108436860C6F86090FFF71CFD9B
:100BF000044606E025E000BFFFF716FD001B0228B3
:100C000009D828688001F7D51BE000BFFFF70CFD6D
:100C1000001B022802D90320BDE8F88F2868800154
:100C2000F4D40EE00128F7D06868226A00F480311D
:100C3000914204D1616A00F47010884201D0012011
:100C4000EAE70020E8E7000000100240000042420E
:100C500080044242200000200070004010B5401E79
:100C6000B0F1807F01D3012010BD4FF0E02460611E
:100C70000F21601700F08DFE0020A0610720206189
:100C8000002010BD7047704770B590F83C20012AD5
:100C900026D0012480F83C40022280F83D200368E1
:100CA0005A689D6822F070060A6832435A600D4BFC
:100CB00002689A4208D0B2F1804F05D00A4B9A429E
:100CC00002D00A4B9A4204D1496825F080031943A7
:100CD000916080F83D40002180F83C10084670BDCE
:100CE000022070BD002C01400004004000080040BC
:100CF000704770B50446006801694FF00005C943AC
:100D0000890715D4C168C943890711D4E91E016157
:100D100001202077206880698007204602D0FFF7F5
:100D2000E7FF04E000F0BEF8204600F06BF92577FD
:100D300020680169C943490717D4C168C9434907F5
:100D400013D46FF0040101610220207720688069CC
:100D500010F4407F204602D0FFF7CAFF04E000F005
:100D6000A1F8204600F04EF9257720680169C943B3
:100D7000090716D4C168C943090712D46FF00801E6
:100D80000161042020772068C0698007204602D0D6
:100D9000FFF7AEFF04E000F085F8204600F032F9DE
:100DA000257720680169C943C90617D4C168C943BA
:100DB000C90613D46FF01001016108202077206864
:100DC000C06910F4407F204602D0FFF791FF04E095
:100DD00000F068F8204600F015F9257720680169D1
:100DE000C943C90708D1C168C943C90704D1891ECD
:100DF0000161204600F056F920680169C9430906DF
:100E000009D4C168C943090605D46FF080010161A6
:100E10002046FFF737FF20680169C943490609D416
:100E2000C168C943490605D46FF0400101612046FD
:100E300000F039F920680169C94389060BD4C168FB
:100E4000C943890607D46FF0200101612046BDE83F
:100E50007040FFF718BF70BD00B585B0002100914C
:100E600001910291039100680B49884211D10B480E
:100E7000816941F0040181618069694600F00400E4
:100E80000490402000900220019003900448FFF756
:100E9000D1FA05B000BD000000040040001002407F
:100EA00000080140704770B5044690F83C000D46BC
:100EB00001280AD0012084F83C0042B1042A18D04D
:100EC000082A2AD00C2A4DD139E0022070BD2068B2
:100ED00000F0A4FB2068816941F00801816120686D
:100EE000816921F004018161206881692A691143C7
:100EF00011E0206800F0BAFB2068816941F40061CC
:100F000081612068816921F4806181612068816943
:100F10002A6941EA0221816124E0206800F0D2FBC5
:100F20002068C16941F00801C1612068C16921F0F0
:100F30000401C1612068C1692A69114311E0206878
:100F400000F0ECFB2068C16941F40061C1612068D8
:100F5000C16921F48061C1612068C1692A6941EADF
:100F60000221C161002084F83C0070BD10B504006E
:100F700003D094F83D0010B107E0012010BD00201F
:100F800084F83C00204600F01FF8022084F83D0061
:100F9000211D206800F0FEFA012084F8460084F844
:100FA0003E0084F83F0084F8400084F8410084F853
:100FB000420084F8430084F8440084F8450084F833
:100FC0003D00002010BD000008B500680B498842B4
:100FD00012D10B48C16941F00201C161C069002210
:100FE00000F00200009011461D20FFF789FBBDE8CC
:100FF00008401D20FFF776BB08BD0000000400403C
:10100000001002407047000010B50446022249B1AA
:1010100004290ED0082913D094F84100012816D0D5
:10102000012010BD94F83E000128F9D184F83E203B
:101030000FE094F83F000128F2D184F83F2008E047
:1010400094F840000128EBD184F8402001E084F8B6
:1010500041200122206800F0D3FA0F49206888421D
:1010600003D1426C42F4004242642068884208D0B6
:10107000B0F1804F05D00949884202D00849884222
:1010800004D1816801F00701062903D0016841F00D
:1010900001010160002010BD002C0140000400404F
:1010A000000800407047704770477047F8B5026805
:1010B00004461068D168536910F00F0F4FF0000517
:1010C00053D003F0010601F4907737435FD0C20795
:1010D00005D0CA0503D5226C42F001022264420702
:1010E00005D5DA0703D0226C42F00202226482079F
:1010F00005D5DA0703D0226C42F00402226402070D
:1011000007D501F02002324303D0226C42F00802DE
:101110002264226C002A34D0800604D5880602D5C9
:10112000204600F03DFB20684069216CC0F3801030
:10113000090700D430B3204600F01AFB206841694B
:1011400049061BD5416921F040014161A06BA8B15E
:1011500058494163A06BFFF70FF9002811D0A06B2D
:10116000416B01B0BDE8F040084783060FD58B0600
:101170000DD52046BDE8F84000F012BB2046FFF731
:1011800094FFF8BD2046FFF790FF2564F8BD266B5D
:101190002023012E52D1C60650D5CE064ED510685A
:1011A00050680090506940062AD5A16B08684068D5
:1011B0000004000CEAD0A68D8642E7D9E085886954
:1011C000202818D0D06820F48070D0602068416951
:1011D00021F0010141612068416921F04001416134
:1011E00084F83E3025632068C16821F01001C16099
:1011F000A06BFFF79EF8A08DE18D401A81B219E037
:10120000A08DE18D401A81B2E08D0028BED000296A
:10121000BCD0D06820F49070D0602068426922F081
:101220000102426184F83E3025632068C26822F0E2
:101230001002C2602046FFF737FFF8BD05062BD528
:101240000D0629D594F83D002128F6D1A068B0F507
:10125000805F01D12069B0B1206A411C2162216800
:1012600000784860E08C401E0004000CE084E4D16B
:101270002068C16821F08001C1602068C16841F028
:101280004001C160F8BD206A0088C0F308005060CA
:10129000206A801C2062E5E74006F3D54806F1D5B8
:1012A000D168204621F04001D16084F83D3000F043
:1012B000ACF8F8BD6117000870B5040004D094F8CC
:1012C0003D00002510B106E0012070BD84F83C50BF
:1012D000204600F023F8242084F83D002068C168EF
:1012E00021F40051C160204600F0B6FA206801697F
:1012F00021F4904101612068416921F02A01416196
:101300002068C16841F40051C1602564202084F840
:101310003D0084F83E00002070BD000030B585B06F
:1013200000240094019402940394006819498842AF
:101330002DD11948816941F480418161816901F4AD
:1013400080410491816941F0040181618069134DFC
:1013500000F0040004904FF400700090022001900F
:101360000320039069462846FFF764F82815CDE965
:1013700000040120029069462846FFF75BF800222E
:1013800011462520FFF7BCF92520FFF7ABF905B082
:1013900030BD00000038014000100240000801404C
:1013A00090F83E30202B0ED159B152B190F83C301C
:1013B000012B08D0012380F83C300023036300F0A8
:1013C000A7BA0120704702207047704790F83D305F
:1013D000202B18D1A9B1A2B190F83C30012B12D02A
:1013E00001628284C28400210164212280F83D20B0
:1013F00080F83C100068C16841F08001C1600020A5
:10140000704701207047022070477047FEE70000D8
:101410002DE9F04186B00024234800940194029401
:101420000394816941F004018161816901F0040143
:101430000491816941F00801816180691B4F00F0CE
:10144000080041F63C060490002231463846FFF77A
:10145000E6F8DFF85C80002212214046FFF7DFF853
:101460000225CDE90054694638460294FEF7E2FFB2
:1014700000960126694638460196CDE90245FEF7F9
:10148000D9FFCDE90064694640460294FEF7D2FFD9
:101490001220CDE9000669464046CDE90245FEF737
:1014A000C9FF06B0BDE8F08100100240000801400D
:1014B000000C014010B58AB0002407941C21684636
:1014C0000894FEF781FE164814490160A021C0E986
:1014D00001146421C0E903148461FFF747FD08B1DA
:1014E00072B6FEE7079407A90D480894FFF7CCFBF6
:1014F00008B172B6FEE76020CDE900040294002234
:10150000694607480494FFF7CEFC08B172B6FEE7BF
:101510000348FFF7A1FC0AB010BD00000004004022
:1015200024000020FEE7FEE770477047FFF782B80F
:1015300030B58FB028216846FEF746FE14210AA870
:10154000FEF742FE02250120049000951020059030
:101550000024C003CDE9084007956846FFF7EEF97F
:1015600008B172B6FEE70F200A90CDE90B540D9436
:1015700000210AA80E94FFF7F5F8002801D072B6F2
:10158000FEE70FB030BD70470148FFF7B2BB000067
:1015900024000020F0B50268164B174C174D4FF091
:1015A0008047984205D0B84203D0A04201D0A8425B
:1015B00003D122F070064A683243984205D0B842FF
:1015C00003D0A04201D0A84203D122F44074CA68DB
:1015D00022434C6922F08002224302608A68C26280
:1015E0000A688262984201D109690163012141615F
:1015F000F0BD0000002C0140000400400008004045
:1016000010B501F01F030121046A99408C43046264
:10161000016A9A401143016210BD000030B5026AB0
:1016200022F001020262026A4368846924F07305B1
:101630000C682C4322F002058A682A430A4DA8420E
:101640000BD122F00805CA6823F440732A434D6980
:1016500022F004021D438B692B4343608461496877
:101660004163026230BD0000002C014030B5026AC7
:1016700022F010020262026A436884690D6824F451
:10168000E64444EA05248D6822F0200242EA05126D
:101690000B4DA8420ED1CD6822F0800242EA05121D
:1016A0004D6923F4406343EA85038D6922F04002CB
:1016B00043EA85034360846149688163026230BD07
:1016C000002C014030B5026A22F480720262036A83
:1016D0004268C46923F4007324F073050C682C433A
:1016E0008D6843EA05230C4DA8420ED1CD6823F442
:1016F000006343EA05234D6922F4405242EA051291
:101700008D6923F4806342EA05124260C46149682E
:10171000C163036230BD0000002C014030B5026A95
:1017200022F480520262046A4268C3690D6823F49D
:10173000E64343EA05238D6824F4005444EA053463
:10174000064DA84204D14D6922F4804242EA851236
:101750004260C36149680164046230BD002C0140ED
:1017600010B5406A0021C185C184FFF79EFC10BD01
:101770000168CA6822F49072CA6001684A6922F05E
:1017800001024A61016B012904D10168CA6822F093
:101790001002CA60202180F83E10002101637047CA
:1017A00008B590F83E10222901D0022008BD8268B9
:1017B0004FF480539A4201D1016921B1816A9A4262
:1017C0001BD04AB10AE00268816A5268C2F308027B
:1017D0000A80816A891C08E0026972B10268526855
:1017E00002F07F020A70816A491C8162C18D491E24
:1017F0000904090CC18503D019E002685268F1E7B9
:101800000168CA6822F02002CA600168CA6822F42E
:101810008072CA6001684A6922F001024A6120218F
:1018200080F83E10016B012903D0FFF7CEFD0020A8
:1018300008BD002101630168CA6822F01002CA6075
:1018400001680A68D20602D50A6849680091818D4C
:10185000FFF72AFCEBE7000070B504460068016959
:10186000E26821F44051114301612169A0680843F5
:10187000616908432168CA6841F20C639A430243D4
:10188000CA6020684169A26921F440711143416135
:101890001E492068884202D1FFF70AF801E0FEF7EE
:1018A000F7FF00EBC00101EB0012606864218000CB
:1018B000B2FBF0F3B3FBF1F36FF018067343B2FB26
:1018C000F0F5B2FBF0F605EB8305322303EB0515CB
:1018D000B5FBF1F5B6FBF1F605F0F00505EB0615E5
:1018E000B2FBF0F6B2FBF0F0B0FBF1F06FF01802D3
:1018F000504306EB800003EB0010B0FBF1F02168D1
:1019000000F00F002844886070BD000000380140DE
:1019100081628285C28500210164222280F83E20F6
:1019200080F83C100168CA6842F48072CA6001689D
:101930004A6942F001024A610068C16841F0200131
:10194000C16000207047000010B50A220449054814
:10195000FFF726FDBDE810400248FFF7A7BB0000D7
:10196000B00000206C000020FEE7490050EAC120D2
:1019700018BF04204A0D18BF40F0010040F2FF726A
:10198000B2EB515F08BF40F00200012808BF0520FC
:1019900070470907090E002804DB00F1E02080F8F9
:1019A0000014704700F00F0000F1E02080F8141DD3
:1019B00070472DE9F0414F1E00EBC7010446D1E905
:1019C000000115461E4637F006020DD02A46334662
:1019D00001F080FA7F1E04EBC703D3E9002301F076
:1019E00011F837F00602F1D1022F25D0042F13D0C1
:1019F000062F18BFBDE8F0812A46334601F06AFA87
:101A0000D4E90A2300F0FEFF2A46334601F062FAC9
:101A1000D4E9082300F0F6FF2A46334601F05AFACB
:101A2000D4E9062300F0EEFF2A46334601F052FACD
:101A3000D4E9042300F0E6FF2A46334601F04AFACF
:101A4000D4E9022300F0DEFF2A46334601F042FAD1
:101A5000D4E90023BDE8F04100F0D4BF00221346D2
:101A60001046014901F08AB80000F03F00F0CABFFB
:101A7000002213461046114601F080B840F20132B0
:101A800000204FF0E04101F074BF0000024A002046
:101A9000110701F06EBF000001FDFFFF04490020A7
:101AA0000860024641F618010248FEF7B8BD000082
:101AB00034040040000801402DE9F04116460D466F
:101AC000074601F0A5FD044601F0BEFD394601F0D0
:101AD0009FFE074600222946204600F07DF8044676
:101AE000002E13D02E20285531460A2000F026FA69
:101AF00001F0AAFD394601F0BFFD01F089FD291969
:101B00003246BDE8F041491C00F066B8BDE8F081FE
:101B100010B5044600F01AF82046BDE8104000F069
:101B200001B80000074910B50860074C0122C9142C
:101B30002046FEF774FD0022A1142046BDE81040A7
:101B4000FEF76DBD3404004000080140074910B5A0
:101B50000860074C002208212046FEF760FD204661
:101B60000122BDE810401021FEF759BD34040040A9
:101B70000008014010B5044600F01AF82046BDE800
:101B8000104000F001B80000074910B50860074C8C
:101B90000022C9142046FEF742FD20460122BDE87E
:101BA00010401103FEF73BBD340400400008014023
:101BB000074910B50860074C012208212046FEF7AE
:101BC0002EFD20460022BDE810401021FEF727BD63
:101BD000340400400008014030B50D4600240A21BD
:101BE00009E000BF90FBF1F301FB130390FBF1F060
:101BF00030332B55641C0028F4D13020944202DA93
:101C00002855641CFAE72146284600F083FE002090
:101C10002855204630BD0000A4B0FEF713FDFFF7A5
:101C200087FCFFF7F5FBFFF745FC9C4C9A48002525
:101C300020604FF41650C4E901050C20E560C4E9AA
:101C40000450A5612046E561FFF736FB08B172B686
:101C5000FEE72068C16841F02001C1608F48002183
:101C60004838FFF7D1F9DFF83882DFF838928E4C28
:101C70004FF07E570122042146464046FEF7CFFC36
:101C80000120FEF7C5FB002204213046FEF7C7FC09
:101C900002213046FEF7BEFC0028F9D0656004E062
:101CA0003946606801F052FC606002213046FEF760
:101CB000B1FC0028F4D1012202214E464846FEF72D
:101CC000AEFC0120FEF7A4FB002202213046FEF705
:101CD000A6FC01213046FEF79DFC0028F9D0A56046
:101CE00004E03946A06801F031FCA06001213046D3
:101CF000FEF790FC0028F4D1606801F0FBFB6B4E0E
:101D0000DFF8ACA13246534601F0E4F800F048FE9B
:101D10002060A06801F0EEFB3246534601F0DAF88D
:101D200000F03EFEE0603C20FEF772FB61A103ABD9
:101D300007C983E8070062A006AB07C883E807006D
:101D400062A109AB07C983E8070063A00CAB07C811
:101D500083E8070063A00FAB07C883E8070064A00F
:101D600012AB07C883E8070064A015AB07C883E877
:101D7000070065A018AB07C883E8070065A01BAB88
:101D800007C883E8070066A21EAB07CA83E80700FE
:101D900066A221AB07CA83E80700404A00206946D3
:101DA0004432135C0B54401C0A28FADB20690628D5
:101DB00015D13A4902224E312068FFF77DFE37489F
:101DC0000D214E3001720A2141720A4601464E38F9
:101DD000FFF7FCFA4FF4FA70FEF71AFB256156493B
:101DE000206888424DDB03A96846FEF715FA68B300
:101DF00006A96846FEF710FA50B309A96846FEF72F
:101E00000BFA38B30CA96846FEF706FA20B30FA9FF
:101E10006846FEF701FA18B312A96846FEF7FCF906
:101E200000B315A96846FEF7F7F9E8B118A96846A6
:101E3000FEF7F2F9D0B11BA96846FEF7EDF9C8B17B
:101E40001EA96846FEF7E8F9C0B11AE02D2004E0AB
:101E5000322002E0462000E06420FFF78BFE10E015
:101E60002D2004E0322002E0462000E06420FFF74D
:101E70004FFE06E02D2000F05AFD02E02D2000F07C
:101E80005FFD21A96846FEF7C7F908B9FFF706FE0E
:101E90002069401C2061EDE6003801406C00002004
:101EA00000080140000C014000000020C976BE9FE0
:101EB0001A2FAD3F696C657269302A2A0D0A00003D
:101EC000696C657269312A2A0D0A0000696C6572B5
:101ED00069322A2A0D0A0000696C657269332A2A60
:101EE0000D0A000067657269302A2A2A0D0A00006F
:101EF00067657269312A2A2A0D0A000067657269CE
:101F0000322A2A2A0D0A000067657269332A2A2AB2
:101F10000D0A00007361672A2A2A2A2A0D0A000086
:101F2000736F6C2A2A2A2A2A0D0A00006475722A05
:101F30002A2A2A2A0D0A00000000A0412DE9F04DAE
:101F40001D460C4698B0174621F0004123F000438F
:101F5000002814BF4FF0010C4FF0000C0CEB440CA8
:101F6000FE4A0CEB02064FEA620C66452BD33E009C
:101F700018BF012606EB45061644F94A964222D3BD
:101F8000F84A53EA070C02D0944205D148B918B078
:101F900000201146BDE8F08D002808BF4FF0000C6E
:101FA00001D04FF0010C0CEB440212F5001F0AD8CF
:101FB000002F14BF4FF0010C4FF0000C0CEB45024A
:101FC00012F5001F07D918B03A462B462146BDE846
:101FD000F04DFFF74BBD0022DFF88CA3002CB8BFFB
:101FE000534526DADFF884C36345A8BF022220DA0E
:101FF000DFF870C39C451CDCDFF874C30CEB235C7A
:10200000BCF1140F08DDCCF1340627FA06FC0CFAFB
:1020100006F6BE420DD108E05FB9CCF1140623FAF2
:1020200006FC0CFA06F69E4203D10CF00102C2F146
:10203000020251EA000C19D1002D17DA002C18BF4A
:10204000022A01D0012A07D00220FEF72DF918B08C
:10205000BDE8F04DFFF702BD0220FEF725F9FFF7BE
:10206000FDFC18B081F00041BDE8F08DB7F1000C27
:102070006CD1534525D104F1804212F5801201BF85
:1020800000280020B74918B008BFBDE8F08DB5485A
:10209000884207DC002DA1BF6046294618B0BDE884
:1020A000F08D07E0281E05DA80F0004118B0604688
:1020B000BDE8F08DAF497944D1E9000118B0BDE821
:1020C000F08DDFF8A0C2634525D1002D1FDA19B1CC
:1020D000514512D1D8B909E0002840F0EC82A24A5B
:1020E000214618B062F31E01BDE8F08D00202146A4
:1020F00018B060F31E01BDE8F08D08DA18B0234671
:10210000BDE8F04D02460020614600F037BD18B032
:102110002146BDE8F08D514518DAB5F1804F0DD05C
:10212000A5F1005CBCF1FF5C10D1B4F1000C0DDB3B
:1021300018B06146BDE8F04D00F00BBC234618B066
:102140000246BDE8F04D194600F0C4BE060024F07A
:10215000004C3BD1D9B1514533D1002C06DD002DC7
:10216000A1BF0020514618B0BDE8F08D002C01DD64
:10217000002D1BDB002C13DA002D11DB012A4FF0A0
:10218000000014BF78497C4918B0BDE8F08D022AE0
:1021900018BF002C0AD0012A08D1002C06DA0AE068
:1021A000002CB8BF002D11DA012A04D0002018B08D
:1021B0000146BDE8F08D18B000204FF00041BDE8A9
:1021C000F08DA1F14050B0F17F601AD0012000EBFA
:1021D000E47050EA020421D0624C521E4FF0000B12
:1021E000104304BF4FF0000B644C654883427CDD14
:1021F000644A654893421FDD884217DB002D25DBCA
:1022000037E0002C00DA4AB1022A0CBF01204FF05F
:10221000FF3018B0BDE8F04D00F008BE0120FEF719
:1022200043F818B0BDE8F04DFFF722BC4D4A8A4292
:1022300002DC002D0ADC1CE0814202DA002D18DAF3
:1022400004E0484B994220DD002D12DD0220FEF70C
:102250002BF8FFF713FC05460E460022534658465E
:10226000214600F037FE18B066F31E012846BDE88F
:10227000F08D0220FEF718F8FFF708FC0A46214609
:1022800018B062F31E01BDE8F08D002230466146B1
:1022900001F046F880460E466FF0010201F069FB3E
:1022A0004FF05532394B00F049FF4246334600F0BB
:1022B00011FE0022364B00F041FF82464246334673
:1022C00004911046194600F005FE5246049B00F0AA
:1022D00001FE8A4600904FF0C0422E4B40463146E8
:1022E00000F0F8FD2C4A2B4B00E027E0CDE9060179
:1022F0005146009800F0EEFD82460191274A284B96
:102300004046314600F0E6FD5246019B01F008F8D8
:1023100082460B4602460591DDE9060100F072FB9C
:10232000DDE9062300268846304600F0F9FF5246D4
:10233000059B00F003FF024600F07EB90020B1F5D6
:10234000801F07DA35223046614601F012FB06464F
:102350006FF0340000EB215024E00000FFFF1F006D
:10236000FFFF0F000000F03F0000F07F000040433F
:1023700001FCFFFFE61900000000F0FF0000F0BFC5
:102380000000E0410000F043FFFFEF3F5555D53F0F
:102390000000E03F4715F73FFE822B6544DF5DF804
:1023A0000BAE543EA0F2FF300190C1F3130040F099
:1023B0007F6141F040510291FE498842D8BF002020
:1023C00004DDFD498142C8BF012001DD0D9008E018
:1023D00000200D900198401C01900298A0F58010FB
:1023E00002900299F54878440B910D9900EBC100D9
:1023F000D0E900230F9330460A920B9900F090FF2A
:10240000CDE90601DDE90A2130460F9B00F0FAFA1A
:1024100002460B460020EA4900F0B0FB0591024657
:102420000B460090DDE9060100F054FD1490E548EC
:102430008A464FF0000878440299006812904FF0E5
:10244000005040EA61010D980F9B01EB804000F5C0
:10245000002109910A9A129800F062FF32460B9B04
:1024600000F06CFE4246534600F034FD06460291F1
:1024700040465146099B129A00F02CFDDDE90623E7
:1024800000F05CFE3246029B00F04AFF059B009A7A
:1024900000F020FD0091149A04905346104619460E
:1024A00000F018FD06460246C7480B460291062179
:1024B0007844FFF77EFACDE90510029B32461046BC
:1024C000194600F007FDDDE9053200F003FD059136
:1024D0000646534640461946149A00F093FA009B6C
:1024E000049A00F0F7FC3246059B00F08BFACDE928
:1024F0000510424653461046194600F0EBFC0022F8
:10250000B24B02910A9000F07DFADDE9053200F04D
:1025100079FA0E464246AD4B404600F001FF029B61
:102520000A9A00F0FDFEDDE9053200F007FE4246A2
:1025300002910A9033461046514600F0CBFCCDE99B
:1025400006015346149A02990A9800F0C3FC8A4681
:102550000290334642460099049800F0BBFC534673
:10256000029A00F04FFA82460B4602460591DDE9D9
:10257000060100F047FADDE90623002088460646FA
:1025800000F0CEFE5246059B00F0D8FD8246099130
:102590004FF060428E4B3046414600F09BFC049069
:1025A00006918C4A8A4B5046099900F093FC82466A
:1025B0000291894A894B3046414600F08BFC5246D5
:1025C000029B00F01FFA864B7B440D9A03EBC2037B
:1025D000D3E9002300F016FA0E900791019800F05D
:1025E00025FC0591DDE9061382460E9A049800F059
:1025F00009FA7C4A7A440D9B02EBC303D3E900231A
:102600000093029200F0FEF95246059B00F0FAF9A1
:102610000026884652463046059B00F081FE009B0E
:10262000029A00F07DFE069B049A00F079FE079B5B
:102630000E9A00F083FD024600200B4602903846B9
:10264000294600F047FC824601912B463846194640
:10265000029A00F065FE3246434600F03BFC5246CB
:10266000019B00F0CFF907468A4632464346294689
:10267000029800F02FFC05460E463A46534600F0FD
:10268000C1F9594A8846914221DBA8EB020353EA7B
:10269000000210D12A46334600F042FECDE9040183
:1026A000524A534B3846514600F0ACF9DDE9042359
:1026B00000F00EFD21D20220FDF7F6FDFFF7DEF956
:1026C0000A46214618B062F31E01BDE8F08D494B61
:1026D00028F000429A4210D3474A08EB020353EA1B
:1026E00000027FF4C6AD2A46334600F019FE3A4692
:1026F000534600F0EDFC7FF6BCAD0022019228F0BD
:1027000000403E493E4A01EB2051824223DA481CF8
:102710004FF4801121FA00F040443A4AC0F30A51C4
:102720007A44394BA1F2FF31CB4020EA0303C0F3D6
:10273000130040F48010C1F11401C84012680190E8
:10274000B8F1000FBCBF404201902846314600F06E
:10275000E7FD05460E462A4633463846514600F008
:1027600051F94FF000084246284B4046059100F0D1
:10277000B1FBCDE90601264A264B4046059900F0FB
:10278000A9FB009102902A4633464046059900F085
:10279000C7FD3A46534600F0D1FC1F4A1F4B00F0DC
:1027A00099FB009B029A00F02DF9074688460246E5
:1027B0000B4635E08E9803007AB60B002E1600000B
:1027C0000000F03F6616000094150000000008406D
:1027D00009C7EE3FFD033ADCF5015B14E02F3EBE76
:1027E0006C1400003014000000009040FE822B6545
:1027F0004715973C00CC904000346F3F01FCFFFF31
:102800000000E03F7C130000FFFF0F00432EE63F77
:10281000396CA80C615C20BEEF39FAFE422EE63F0F
:10282000DDE9060100F0EEF8DDE9062305460E4677
:1028300000F076FD3A46434600F080FC0F462A46FB
:10284000334600901046194600F044FB824602468B
:102850002E4888460B4605217844FFF7AAF85246D1
:10286000434600F037FB2A46334600F067FC8046BB
:102870008A463B4628463146009A00F02BFB3B46F1
:10288000009A00F0BFF80691009000224FF08043BC
:102890004046514600F044FD0F460C9042465346D8
:1028A0002846314600F016FB3B460C9A00F066F9CC
:1028B000069B009A00F034FD2A46334600F030FDB6
:1028C0000022134B00F03AFC054601980E4601EB3E
:1028D00000510815002810DC28463146019A01F005
:1028E00048F8FFF742F8042808BFFFF7CFF828465A
:1028F0003146019A01F03DF805460B4618B02A46CC
:1029000058462146BDE8F04D00F0E4BA1C12000024
:102910000000F03F10B50022491E05E0835C445CD6
:1029200084544354491E521C8A42F7DB10BD10B533
:102930000446FFF73DF92046BDE81040FFF7F2B826
:1029400010B50446FFF720F92046BDE81040FFF718
:10295000FDB82DE9F04106460F4600F0FBFB041ED2
:102960000D4618BF0120284320F00040C0F17F60D1
:1029700000F1E040C00F0ED0301C18BF01203843DA
:1029800020F00040C0F17F6000F1E040C00F04BFC4
:102990000120FDF789FC20462946BDE8F0810000B2
:1029A00021F00042A2F16052B2F5801F01F0004315
:1029B00028BFD2F17F6C0BD95FEA001C43EAC20248
:1029C00042EB507018BF704728BF20F001007047DD
:1029D000B2F5801FBCBF184670474FEA410C1CF58A
:1029E000001F02D2084600F00EBF70B500F01CFBBD
:1029F00000000089FFF7F6BF4FF00040A0F580000F
:102A00007047000010B591EA030F48BF83F0004300
:102A100000F18E84841A71EB030C05D2121943EB7A
:102A20000C03001B61EB0C01DFF824E14FEA1154A9
:102A3000A4EB135C1EEA430F18BF9EEA445F73D0F9
:102A400023EA0E03DCF1200E21EA045143F4801343
:102A500032D322FA0CFE10EB0E0023FA0CFE41EBEF
:102A60000E01CCF1200E03FA0EFE10EB0E0051F118
:102A70000001B1F5801FCCF1200E32D201EB0451E0
:102A800012FA0EF2BDE8104058BF7047401C38BF24
:102A90005FEA420218BF7047002814BF20F001000F
:102AA00041F100014FEA410313F5001F38BF7047A1
:102AB000A1F1C04100F006BB012A43EB0302ACF1D7
:102AC000200CDCF11F0E32BF4FF0000E23FA0CF386
:102AD00010EB030041EB0451B4EB115FD0D0A1EB3C
:102AE000045101F5801149085FEA300001EB0451FF
:102AF0000ED350F1000038BF12FA0EFE08D1BDE827
:102B00001040C9E7401C38BF5FEA4202CAD1C3E7A0
:102B1000BDE810404FEA410313F5001F38BF70476E
:102B2000A1F1C04100F0CEBA9EEA445F08D011EA9C
:102B30005E0FBDE8104004BF01F000410020704767
:102B4000BDE8104070B500F06FFA00BF64FBBE3EF8
:102B50000000E0FF02494FF0000000F0D8BE00BFC7
:102B60000000F87F491058BFC1F140415B1058BFC9
:102B7000C3F140438B42EFF3008070472DE9C04121
:102B800030B4DFF8A0C23CEA111418BF3CEA1314B9
:102B900000F0EC8081EA03051CEA111444EAD574C4
:102BA00018BF1CEA131500F0C780A4EB05044FF012
:102BB000004545EAC12145EAC32341EA505143EAB1
:102BC000525304F17F74994204F500344FEAC02057
:102BD0004FEAC22208BF904200F09C804FEA136582
:102BE0000FF24016765D4FEA134506FB05F7C7F175
:102BF000807706FB07F74FEAD737A7FB03687642D3
:102C0000C8F58038A7FB06CE38BFA8F1010807FB3E
:102C100008E64FF0000EA6FB028CE6FB03CEDCF1CB
:102C2000000CCEF1004E38BFAEF1010EA6FB0C58E1
:102C30004FF000074FF00005E6FB0E87A1FB08C62A
:102C4000A0FB07CE16EB0E0645F10005E1FB07657C
:102C500015F1E04E7EBFA4F580345FEA46066D4173
:102C600016F1800745F100054FEA17274FEA06667F
:102C700047EA0567A6F1DE46B6F1805F4FEA152503
:102C80001FD9384624F0010C05EBC471BCF1FE6F6E
:102C900001EB0C1102D8F0BCBDE8008124425CBFFE
:102CA00001F5801E9EEAC47F02D4F0BCBDE800811D
:102CB000244238D4F0BCA1F1C041BDE8004100F08D
:102CC00001BA4FEAD22242EA43524FEAD323A7FB8A
:102CD00002864FEAD02040EA415007FB03661EEA15
:102CE0000E0F4FEAD12105FB026658BFA6EB005636
:102CF000B6EB00564FEA520E4EEAC37E18EB0E0EAC
:102D000056EB530EBDD518EB02085E417F1C55F102
:102D10000005B6E74FF480154FF000074FF00006AE
:102D20004FF00008ADE7F0BC4FF0000001F1C041EA
:102D300001F00041BDE8008111EA0C1F0CEA1315F7
:102D400000D00CE013EA0C1F00F025804FF00000CB
:102D5000F0BC81EA030101F00041BDE80081F0BC54
:102D6000BDE8004181EA030100F0ACB9F0BCBDE868
:102D7000004170B500F058F9097EFC3E00F007B83C
:102D800081EA03014FF0000001F00041704781EA41
:102D9000030100F097B9F0BCBDE800414FF000001E
:102DA00021497047FFFDFBF9F7F5F4F2F0EEEDEB8A
:102DB000E9E8E6E4E3E1E0DEDDDBDAD8D7D5D4D339
:102DC000D1D0CFCDCCCBCAC8C7C6C5C4C2C1C0BF85
:102DD000BEBDBCBBBAB9B8B7B6B5B4B3B2B1B0AF8B
:102DE000AEADACABAAA9A8A8A7A6A5A4A3A3A2A16F
:102DF000A09F9F9E9D9C9C9B9A999998979796952A
:102E000095949393929191908F8F8E8E8D8C8C8BC5
:102E10008B8A89898888878786858584848383824D
:102E2000828181800000FF070000F87F10F00042DF
:102E300048BF4042B0FA80F310FA03F10AD0C3F160
:102E40001D0303F580634FEA415002EB035202EB8E
:102E5000D12170474FF000007047000051EA030C89
:102E600017D41CF5801F58BFBCF5801F00F10680E9
:102E7000994218BF704708BF9042704707D711F5B5
:102E8000801F58BF13F5801F19D49942704789429B
:102E900070471CF5801F08D5BCF5801FF7D58B4205
:102EA00018BF704708BF824270474FF4001C1CEBEC
:102EB000410F38BF1CEB430F01D28B42704770B5F6
:102EC00000F0B2F8922449004FF000514FF08053C7
:102ED000FFF748BEDFF848C170B51CEA111E1EBFDF
:102EE0001CEA13159EEA0C0F95EA0C0F00F06F8098
:102EF00081EA030423EA4C134EEAD47E21EA4C1102
:102F000041F4801143F48013AE44A1FB024CA0FBBA
:102F10000365AEF17F7E361955EB0C05A1FB034C22
:102F20004CF10003A0FB021C16EB0C06654153F1AB
:102F30000003094218BF46F0010613F4007F0BD1CD
:102F40004FEA03314FEA0530340341EA155140EAB4
:102F500016506FF003020AE04FEAC3214FEAC52082
:102F6000F40241EA555140EA56506FF0020202EB7A
:102F70002E4201EB025585EACE710AD05FEA440C7D
:102F800018BF24F0004450F1000041F1000120EA94
:102F9000D47040F2FE7C624500D270BDA84214BFDE
:102FA0004FF080444FF04044002E08BF0024BEF193
:102FB000806FA8BFA1F1C041BDE8704080F282805F
:102FC0004FF0000001F1C04101F0004170479EEA5E
:102FD0000C0F0CEA131518BF95EA0C0F06D04FF032
:102FE000000081EA030E0EF0004170BD00F01CF8F5
:102FF0008900013E00F007B800F009B84FEA430C21
:103000005FEA5C5C08D081EA030100F05BB84FEA3C
:10301000410C5FEA5C5CF6D14FF00000014970475B
:103020000000FF070000F87F0EF1020E2EF0030EE5
:103030005EF8046B364205D4012A43EB030515F50F
:10304000001F12D8012841EB010C1CF5001F0CD801
:103050000ED14FEAD17C15F5001F0CEB4C0C0CF196
:10306000020C08BF4CEBD37C04E04FF0080C01E0ED
:103070004FEAD37C0CEB4C0526FA05F606F0070662
:10308000B6F1040C06D20EEB860CBDE870404CF095
:10309000010C6047DFE80CF0090B02024FF0004121
:1030A0004FF00000A1F5002170BD1946104601281F
:1030B00051EB010418BFD4F5001484BF002001F0C7
:1030C000004170BD0808A0F500114FEA31017047BA
:1030D00053EA010C17D41CF5801F58BFBCF5801FA4
:1030E00000F106808B4218BF704708BF82427047CC
:1030F00007D713F5801F58BF11F5801F19D48B42D5
:1031000070479B4270471CF5801F08D5BCF5801F97
:10311000F7D5994218BF704708BF904270474FF4E7
:10312000001C1CEB430F38BF1CEB410F01D299422E
:1031300070470FB40CBC03BCFFF7C1BE91EA030F8C
:1031400010B581F000413FF565AC83F0004300F01D
:10315000EFB800002DE9F04101F5801CBCF5001F1F
:10316000C0F2C3804FEA115C21EA0C510CF1FD0C56
:1031700041F480115FEA5C0C0CF5C07C01D3400087
:1031800049413DA4890241EA905187028E0E0A0C02
:10319000A45D04FB04F602FB06F6C6F14046A4FB60
:1031A0000662F60D46EA422606FB06F4A4FB01235E
:1031B0005242C3F1404338BF5B1EA6FB02420024CB
:1031C000E6FB0324D20B42EA4446A6FB0623A1FBFE
:1031D00002E2A3FB07E4A4184FF0000252F1000240
:1031E000E3FB01426442C2F1404E38BFAEF1010E32
:1031F000A6FB04234FF00002E6FB0E32A2FB0346BF
:103200004FF00004B61954F10004E2FB0264A1FB84
:1032100006E6A4FB07E816EB08064FF0000858F195
:103220000008E4FB01687642C8F1405838BFA8F1B5
:103230000108A2FB06E4A3FB08E52D194FF00004EA
:1032400054F10004E2FB0854A1FB05E6A7FB04E8E7
:1032500018EB06084FF0000656F10006E1FB048665
:1032600018F1200556F10006A809A8F11B08B109BC
:1032700008F03F08B8F10A0F40EA86601CD901EB5C
:103280000C51BDE8F08100BFFCF5EEE8E2DDD8D3DB
:10329000CFCBC7C3C0BDB9B6B4B1AEACA9A7A5A3C7
:1032A000A19F9D9B9A9896959392908F8D8C8B89D8
:1032B0008887868584838281A0FB006800FB01F2F9
:1032C00008EB4208B8EB872807D5341858EB0104FF
:1032D000D5D5401C51F10001D1E7341A78EB010437
:1032E000CDD4401E71F10001C9E75FEA4C0C5FEAE2
:1032F0009C5C0DD105D34FF0000001F00041BDE80A
:10330000F081BDE8F04170B5FFF78EFE6DDBFFBECA
:10331000BDE8F0414FF00000004970470000F87F21
:1033200010B591EA030F48BF83F000433FF572AB3D
:10333000841A71EB030C07D212198CF0004C43EB8A
:103340000C03001B61EB0C01DFF8A4E14FEA115400
:10335000A4EB135C1EEA430F18BF9EEA445F00F023
:10336000B08023EA6E03524221EA0451C3EB6E039C
:1033700038BF5B1EDCF1200E25D322FA0CFE10EBC9
:103380000E0043FA0CFE41EB0E01CCF1200E03FAC5
:103390000EFE10EB0E0051F10001CCF1200E29D4ED
:1033A00012FA0EF201EB0451BDE8104058BF70470D
:1033B000401C1CBFB2F1004F704700280CBF491CD5
:1033C00020F00100704712EB020E43EB030218BF1E
:1033D0004FF0010E4EEA4202ACF1200CDCF11E0E61
:1033E00054D943FA0CFE10EB0E0051F1FF31CCF131
:1033F0001E0ED5D50EF1010E12FA0EFE404141EB24
:10340000010101EB445C5FEA5C5C10D910EBDE70FB
:1034100001EB045138BFBEF1004FBDE8104018BFAA
:10342000704700280CBF491C20F00100704730D2C3
:103430004FEAD42C11F5001124F400641BD0B1FA2A
:1034400081F20B3AA41AA41ED2F12003914030FA63
:1034500003F31943904001EBCC71002C01EB0451B4
:10346000BDE81040A8BF704701F1C0414FF0000017
:1034700001F000417047B0FA80F310FA03F100D177
:1034800010BDE41A173C4805C90AE4E701EB0451F2
:1034900010BD491001EB0451BDE810404FEA300067
:1034A00002E04FF0000170474A0008BF0042F8D028
:1034B000B2F5001F28BF704701F000414FF0000037
:1034C00070479EEA445F07D011EA5E0FBDE81040E6
:1034D00004BF002100207047BDE8104070B5FFF721
:1034E000A3FD00BF40DFF63E83F000411046704769
:1034F0000000E0FF43004FEAD30C4FEA3C0C43408E
:103500001FBF40070CF1605113F0FE4F70471CF0D5
:10351000006F03D100200CF0004170470CF0004315
:1035200043EA507010B540EACC0000F026F900BF25
:10353000000000924FEA0001FFF7C4BD4FF00041C8
:103540004FF00000A1F500217047000090EA010F44
:1035500048BF81F0004100F16C81421A3CBF801AE3
:1035600089184FEAD0524FF07F4C1CEA410FA2EB72
:10357000D15318BF9CEA026F00F03B804FF0004C23
:103580004CEA00204CEA012121FA03FC10EB0C0C60
:103590001ED202F1FF325FEA1C2040EBC25038BF5E
:1035A00070471CF07F0F4FEA400C18BFBCF17F4FF3
:1035B00038BF7047C3F12003994008BF20F00100D5
:1035C000BCF17F4F38BF7047A0F1C04000F01BB97D
:1035D0004FEA3C00000A40EBC25028BF1CF0FF0F2E
:1035E0004FEA400CE6D018BFBCF17F4F38BF7047A0
:1035F000EAE79CEA026F05D010EA5C0F08BF00F012
:103600000040704710B500F0B8F800BF64FBBE3E44
:1036100041000B0ED3F19E0208D950F400034FEA8B
:10362000032323FA02F048BF4042704710B500F070
:10363000A4F800BF49922480002070476FF0004238
:1036400082EA20007047000010F0004148BF40426D
:10365000B0FA80F310FA03F2C3F19D030BD051EAE4
:10366000C35101EB1220530638BF704700F101002F
:1036700008BF20F0010070474FF47F0C1CEAD01205
:103680001EBF1CEAD11392EA0C0F93EA0C0F00F054
:10369000478090EA010F48BF42F480724FF0004C1F
:1036A0004CEA00204CEA012102EB0302A0FB0113CB
:1036B000A2F50002002918BF43F001035B0028BFF8
:1036C0004FEA330342EB22425FEA132C4CEBC25029
:1036D0002EBFBCEB436FB2F57C0F70474FEA036C13
:1036E000BCF1004F08BF20F00100B2F57C0F38BFDD
:1036F00070470BD582F0FF0212F5803FC8BF7047BC
:1037000000F1C040D8BF00F00040704700F5000C49
:103710005FEA4C0C48BF7047B0F1C04000F073B88E
:1037200090EA010F0CEAD11348BF42F4807262455F
:1037300038BF634504D280EA010000F000407047C2
:1037400010B500F01AF800BF8900013E00F007B87C
:1037500000F009B85FEA410C5FEA1C6C08D080EA0F
:10376000010000F050B85FEA400C5FEA1C6CF6D133
:103770004FF00040A0F5800070470EF1020E2EF0D1
:10378000030E5EF8044B244204D44FEA4102B2F126
:103790007F4F11D84FEA4003B3F17F4F0CD80ED1C1
:1037A0004FEAD07CB2F17F4F0CEB4C0C0CF1020CC9
:1037B00008BF4CEBD17C04E04FF0080C01E04FEA6D
:1037C000D17C0CEB4C0324FA03F404F00704B4F1AD
:1037D000040C06D20EEB840CBDE810404CF0010C3A
:1037E0006047DFE80CF0070802024FF00040A0F548
:1037F000800010BD0846420018BFD2F1807288BF19
:1038000000F0004010BDFF2141EAD050C0057047D4
:1038100080F0004090EA010F7FF59FAE81F00041FB
:1038200000F007B890EA010F48BF81F000413FF572
:1038300094AE421A04D882F00042A0EB0200114478
:103840004FEAD0524FF07F4C1CEA410FA2EBD1530C
:1038500018BF9CEA026F4AD04FF0004C4CEA00209F
:103860004CEA012121FA03FCB0EB0C0C0FD412F04E
:10387000FE0F36D05FEA4C001DD5001240EBC2505F
:1038800038BF70471CF03F0F18BF70470BE0A2F124
:1038900001025FEA1C2040EBC25038BF70471CF0A9
:1038A0007F0F18BF7047C3F12003994014BF401E1B
:1038B00020F00100704780084FEA122308BF7047CC
:1038C000B0FA80FCA2EB0C02CCF1280C60FA0CF0F0
:1038D00093EA122F04BF00EBC25070474FEAC37047
:1038E0007047130A5FEADC1008BF7047F6E79CEAEE
:1038F000026F04D010EA5C0F08BF0020704710B5BB
:10390000FFF73BFF40DFF63E81F0004070470CF0D0
:103910000F03092B08BF082000F059800A2B0BD099
:10392000082B18BF704708BF1CF0400F0AD04FF09B
:1039300000004FF0000170471CF0400F18BF4FF01F
:10394000004070471CF0100F08D020F0704300F0CA
:103950007F4242EAD3014FEA4370704700F0604073
:1039600021F07F4242EA000201F07F4040EA72709B
:1039700070474FF0FF0C4CF4E06C1CEA11531CBF75
:103980009CEA030C9445C2BFDA4201EB0251704736
:10399000002B0DD0BCF1000F0FD0002A01F0004128
:1039A000A4BF41F0E04141F07F614FF0000070475B
:1039B00001F000414FF00000704750EA01334FF032
:1039C0009B0C18BF4CF0806C7FF4C4A870471CF4AB
:1039D000801F11D01CF4E02F03D06FEACC314900D6
:1039E00070474FF04050EFF3008222F0704242EAFD
:1039F000000282F3008870474FF00000704700001B
:103A0000000000000000010203040607080900008E
:103A10000000010203040000000000000000F03F6D
:103A2000000000000000F83F00000000000000005F
:103A30000000004003B8E23F00000000000000006A
:103A400006D0CF43EBFD4C3E033333333333E33FF8
:103A5000FFAB6FDBB66DDB3F4D268F515555D53F24
:103A600001411DA96074D13F65DBC9934A86CD3FF2
:103A7000EF4E454A287ECA3F3E5555555555C53FE0
:103A800093BDBE166CC166BF2CDE25AF6A56113FD2
:103A9000F16BD2C541BDBBBED0A4BE726937663ED4
:103AA0000000000000000000C83A000800000020EC
:103AB0002400000028010008EC3A0008240000203F
:103AC000040700004401000800000000000000009E
:103AD00000000000000000000000000001000000E5
:0C3AE00010000000000000000024F400B2
:04000005080000ED02
:00000001FF
